:100000000C943E000C945B000C945B000C945B0021
:100010000C945B000C945B000C945B000C945B00F4
:100020000C945B000C945B000C945B000C945B00E4
:100030000C945B000C945B000C945B000C945B00D4
:100040000C945B000C945B000C945B000C945B00C4
:100050000C945B000C945B000C945B000C945B00B4
:100060000C945B000C945B000C945B000C945B00A4
:100070000C9419010C945B000C945B0011241FBEBE
:10008000CFEFD8E0DEBFCDBF11E0A0E0B1E0E6EDFC
:10009000F2E002C005900D92A230B107D9F721E03D
:1000A000A2E0B1E001C01D92A630B207E1F70E94C4
:1000B000E0000C9469010C940000FC018091C800E0
:1000C00084FD0AC08091C80083FD08C08091C800EB
:1000D00082FF06C08DEF05C08FEF03C08EEF01C019
:1000E00080E09091CE0090830895E8ECF0E090815C
:1000F00095FFFDCFE9ECF0E090819E7F9083662331
:1001000019F09081916090838093CE000895E8EC7F
:10011000F0E08081816080830895E8ECF0E08081E8
:100120008E7F80830895E9ECF0E080818860808391
:100130000895E9ECF0E0808180618083089582E099
:100140008093CD0080E78093CC008EE78093CA0037
:10015000E9ECF0E08081846080830E9487000E9447
:1001600093000E9499000895E9ECF0E080818F7E71
:1001700080830895CF93DF931F92CDB7DEB71982A6
:100180008091C80088234CF4AEECB0E0E8ECF0E0DD
:100190008C91898380818823DCF30E94B4000E94C3
:1001A000990000008091CE00898300000F90DF91BC
:1001B000CF910895E9ECF0E0808180688083089514
:1001C00087E084B985B90E949F000E94DA00789484
:1001D0001092030110920501109204011092020185
:1001E0000000809105018823D9F300002A988091AE
:1001F00003018E3F51F08F3F19F08D3F81F40AC00B
:1002000060E083E20E94750011C060E086E20E9417
:1002100075000CC060E081E20E94750007C080910B
:1002200004018091040160E00E94750010920501B4
:10023000D7CF1F920F920FB60F9211242F933F9397
:100240004F935F936F937F938F939F93AF93BF93DE
:10025000EF93FF93CF93DF9300D0CDB7DEB71A8231
:100260001982CE0102960E945D008983809102016D
:10027000882369F0809100019A81981305C00E943B
:100280008D001092020110C00E94BA000DC081E0E2
:10029000809305019981909303019A8190930401C1
:1002A000809302010E9487000F900F90DF91CF9101
:1002B000FF91EF91BF91AF919F918F917F916F913E
:1002C0005F914F913F912F910F900FBE0F901F9014
:0602D0001895F894FFCF21
:0202D6005800CE
:00000001FF
